{
  "_format": "hh-sol-artifact-1",
  "contractName": "UniDirectionalPaymentChannel",
  "sourceName": "contracts/UniDirectionalPaymentChannel.sol",
  "abi": [
    {
      "inputs": [
        {
          "internalType": "address payable",
          "name": "_receiver",
          "type": "address"
        },
        {
          "internalType": "address payable",
          "name": "_platform",
          "type": "address"
        },
        {
          "internalType": "uint256",
          "name": "_commission_percentage",
          "type": "uint256"
        }
      ],
      "stateMutability": "payable",
      "type": "constructor"
    },
    {
      "anonymous": false,
      "inputs": [
        {
          "indexed": false,
          "internalType": "uint256",
          "name": "timestamp",
          "type": "uint256"
        }
      ],
      "name": "ContractCanceled",
      "type": "event"
    },
    {
      "anonymous": false,
      "inputs": [
        {
          "indexed": false,
          "internalType": "uint256",
          "name": "timestamp",
          "type": "uint256"
        }
      ],
      "name": "ContractClosed",
      "type": "event"
    },
    {
      "anonymous": false,
      "inputs": [
        {
          "indexed": false,
          "internalType": "uint256",
          "name": "timestamp",
          "type": "uint256"
        },
        {
          "indexed": false,
          "internalType": "address",
          "name": "sender",
          "type": "address"
        },
        {
          "indexed": false,
          "internalType": "address",
          "name": "receiver",
          "type": "address"
        },
        {
          "indexed": false,
          "internalType": "uint256",
          "name": "amountTransferred",
          "type": "uint256"
        }
      ],
      "name": "PaymentCompleted",
      "type": "event"
    },
    {
      "inputs": [],
      "name": "cancel",
      "outputs": [],
      "stateMutability": "nonpayable",
      "type": "function"
    },
    {
      "inputs": [
        {
          "internalType": "uint256",
          "name": "_amount",
          "type": "uint256"
        },
        {
          "internalType": "bytes",
          "name": "_sig",
          "type": "bytes"
        }
      ],
      "name": "close",
      "outputs": [],
      "stateMutability": "nonpayable",
      "type": "function"
    },
    {
      "inputs": [],
      "name": "commission_percentage",
      "outputs": [
        {
          "internalType": "uint256",
          "name": "",
          "type": "uint256"
        }
      ],
      "stateMutability": "view",
      "type": "function"
    },
    {
      "inputs": [],
      "name": "expiresAt",
      "outputs": [
        {
          "internalType": "uint256",
          "name": "",
          "type": "uint256"
        }
      ],
      "stateMutability": "view",
      "type": "function"
    },
    {
      "inputs": [
        {
          "internalType": "uint256",
          "name": "_amount",
          "type": "uint256"
        }
      ],
      "name": "getEthSignedHash",
      "outputs": [
        {
          "internalType": "bytes32",
          "name": "",
          "type": "bytes32"
        }
      ],
      "stateMutability": "view",
      "type": "function"
    },
    {
      "inputs": [
        {
          "internalType": "uint256",
          "name": "_amount",
          "type": "uint256"
        }
      ],
      "name": "getHash",
      "outputs": [
        {
          "internalType": "bytes32",
          "name": "",
          "type": "bytes32"
        }
      ],
      "stateMutability": "view",
      "type": "function"
    },
    {
      "inputs": [],
      "name": "platform",
      "outputs": [
        {
          "internalType": "address payable",
          "name": "",
          "type": "address"
        }
      ],
      "stateMutability": "view",
      "type": "function"
    },
    {
      "inputs": [],
      "name": "receiver",
      "outputs": [
        {
          "internalType": "address payable",
          "name": "",
          "type": "address"
        }
      ],
      "stateMutability": "view",
      "type": "function"
    },
    {
      "inputs": [],
      "name": "sender",
      "outputs": [
        {
          "internalType": "address payable",
          "name": "",
          "type": "address"
        }
      ],
      "stateMutability": "view",
      "type": "function"
    },
    {
      "inputs": [
        {
          "internalType": "uint256",
          "name": "_amount",
          "type": "uint256"
        },
        {
          "internalType": "bytes",
          "name": "_sig",
          "type": "bytes"
        }
      ],
      "name": "verify",
      "outputs": [
        {
          "internalType": "bool",
          "name": "",
          "type": "bool"
        }
      ],
      "stateMutability": "view",
      "type": "function"
    }
  ],
  "bytecode": "0x608060405260405162001cc438038062001cc483398181016040528101906200002991906200022f565b6001600081905550600073ffffffffffffffffffffffffffffffffffffffff168373ffffffffffffffffffffffffffffffffffffffff161415620000a4576040517f08c379a00000000000000000000000000000000000000000000000000000000081526004016200009b90620002fb565b60405180910390fd5b600073ffffffffffffffffffffffffffffffffffffffff168273ffffffffffffffffffffffffffffffffffffffff16141562000117576040517f08c379a00000000000000000000000000000000000000000000000000000000081526004016200010e90620002d9565b60405180910390fd5b33600160006101000a81548173ffffffffffffffffffffffffffffffffffffffff021916908373ffffffffffffffffffffffffffffffffffffffff16021790555082600260006101000a81548173ffffffffffffffffffffffffffffffffffffffff021916908373ffffffffffffffffffffffffffffffffffffffff16021790555081600360006101000a81548173ffffffffffffffffffffffffffffffffffffffff021916908373ffffffffffffffffffffffffffffffffffffffff1602179055508060058190555062093a8042620001f291906200032e565b60048190555050505062000483565b60008151905062000212816200044f565b92915050565b600081519050620002298162000469565b92915050565b6000806000606084860312156200024b576200024a620003f8565b5b60006200025b8682870162000201565b93505060206200026e8682870162000201565b9250506040620002818682870162000218565b9150509250925092565b60006200029a6017836200031d565b9150620002a782620003fd565b602082019050919050565b6000620002c16017836200031d565b9150620002ce8262000426565b602082019050919050565b60006020820190508181036000830152620002f4816200028b565b9050919050565b600060208201905081810360008301526200031681620002b2565b9050919050565b600082825260208201905092915050565b60006200033b82620003bf565b91506200034883620003bf565b9250827fffffffffffffffffffffffffffffffffffffffffffffffffffffffffffffffff0382111562000380576200037f620003c9565b5b828201905092915050565b600062000398826200039f565b9050919050565b600073ffffffffffffffffffffffffffffffffffffffff82169050919050565b6000819050919050565b7f4e487b7100000000000000000000000000000000000000000000000000000000600052601160045260246000fd5b600080fd5b7f706c6174666f726d203d207a65726f2061646472657373000000000000000000600082015250565b7f7265636569766572203d207a65726f2061646472657373000000000000000000600082015250565b6200045a816200038b565b81146200046657600080fd5b50565b6200047481620003bf565b81146200048057600080fd5b50565b61183180620004936000396000f3fe608060405234801561001057600080fd5b506004361061009e5760003560e01c806385852ce41161006657806385852ce41461015b5780638622a6891461018b578063a3bc6dad146101a9578063ea8a1af0146101c7578063f7260d3e146101d15761009e565b8063415ffba7146100a35780634bde38c8146100bf578063552f50b6146100dd57806367e404ce1461010d5780636b2fafa91461012b575b600080fd5b6100bd60048036038101906100b89190610cf7565b6101ef565b005b6100c761056c565b6040516100d49190610ffd565b60405180910390f35b6100f760048036038101906100f29190610cca565b610592565b6040516101049190611033565b60405180910390f35b6101156105a4565b6040516101229190610ffd565b60405180910390f35b61014560048036038101906101409190610cca565b6105ca565b6040516101529190611033565b60405180910390f35b61017560048036038101906101709190610cf7565b6105dc565b6040516101829190611018565b60405180910390f35b6101936105f0565b6040516101a091906111d3565b60405180910390f35b6101b16105f6565b6040516101be91906111d3565b60405180910390f35b6101cf6105fc565b005b6101d9610743565b6040516101e69190610ffd565b60405180910390f35b60026000541415610235576040517f08c379a000000000000000000000000000000000000000000000000000000000815260040161022c90611193565b60405180910390fd5b6002600081905550600260009054906101000a900473ffffffffffffffffffffffffffffffffffffffff1673ffffffffffffffffffffffffffffffffffffffff163373ffffffffffffffffffffffffffffffffffffffff16146102cd576040517f08c379a00000000000000000000000000000000000000000000000000000000081526004016102c4906111b3565b60405180910390fd5b6102d78282610769565b610316576040517f08c379a000000000000000000000000000000000000000000000000000000000815260040161030d906110d3565b60405180910390fd5b60006064600554846103289190611337565b6103329190611306565b905080836103409190611391565b92506000600260009054906101000a900473ffffffffffffffffffffffffffffffffffffffff1673ffffffffffffffffffffffffffffffffffffffff168460405161038a90610fe8565b60006040518083038185875af1925050503d80600081146103c7576040519150601f19603f3d011682016040523d82523d6000602084013e6103cc565b606091505b5050905080610410576040517f08c379a0000000000000000000000000000000000000000000000000000000008152600401610407906110f3565b60405180910390fd5b7fd1e200d26ce4eaa32ec245dc3e6ce39e60a066cbcddb84dc39a38126961a16c442600160009054906101000a900473ffffffffffffffffffffffffffffffffffffffff16600260009054906101000a900473ffffffffffffffffffffffffffffffffffffffff168760405161048994939291906111ee565b60405180910390a1600360009054906101000a900473ffffffffffffffffffffffffffffffffffffffff1673ffffffffffffffffffffffffffffffffffffffff166108fc839081150290604051600060405180830381858888f193505050501580156104f9573d6000803e3d6000fd5b507fd79ef0d7f68df3d827e7c4b6a13ec4570e9a30515c4717bbaa647da58ca68be14260405161052991906111d3565b60405180910390a1600160009054906101000a900473ffffffffffffffffffffffffffffffffffffffff1673ffffffffffffffffffffffffffffffffffffffff16ff5b600360009054906101000a900473ffffffffffffffffffffffffffffffffffffffff1681565b600061059d826107de565b9050919050565b600160009054906101000a900473ffffffffffffffffffffffffffffffffffffffff1681565b60006105d5826107f8565b9050919050565b60006105e88383610769565b905092915050565b60045481565b60055481565b600160009054906101000a900473ffffffffffffffffffffffffffffffffffffffff1673ffffffffffffffffffffffffffffffffffffffff163373ffffffffffffffffffffffffffffffffffffffff161461068c576040517f08c379a000000000000000000000000000000000000000000000000000000000815260040161068390611173565b60405180910390fd5b6004544210156106d1576040517f08c379a00000000000000000000000000000000000000000000000000000000081526004016106c890611153565b60405180910390fd5b7fac741f39298ee393c5b4c9e9116c20e4ea7ad1c1d04770cdb296dcab16073db64260405161070091906111d3565b60405180910390a1600160009054906101000a900473ffffffffffffffffffffffffffffffffffffffff1673ffffffffffffffffffffffffffffffffffffffff16ff5b600260009054906101000a900473ffffffffffffffffffffffffffffffffffffffff1681565b6000600160009054906101000a900473ffffffffffffffffffffffffffffffffffffffff1673ffffffffffffffffffffffffffffffffffffffff166107bf836107b1866107de565b61082a90919063ffffffff16565b73ffffffffffffffffffffffffffffffffffffffff1614905092915050565b60006107f16107ec836107f8565b610851565b9050919050565b6000308260405160200161080d929190610f96565b604051602081830303815290604052805190602001209050919050565b60008060006108398585610881565b9150915061084681610904565b819250505092915050565b6000816040516020016108649190610fc2565b604051602081830303815290604052805190602001209050919050565b6000806041835114156108c35760008060006020860151925060408601519150606086015160001a90506108b787828585610ad9565b945094505050506108fd565b6040835114156108f45760008060208501519150604085015190506108e9868383610be6565b9350935050506108fd565b60006002915091505b9250929050565b6000600481111561091857610917611542565b5b81600481111561092b5761092a611542565b5b141561093657610ad6565b6001600481111561094a57610949611542565b5b81600481111561095d5761095c611542565b5b141561099e576040517f08c379a000000000000000000000000000000000000000000000000000000000815260040161099590611093565b60405180910390fd5b600260048111156109b2576109b1611542565b5b8160048111156109c5576109c4611542565b5b1415610a06576040517f08c379a00000000000000000000000000000000000000000000000000000000081526004016109fd906110b3565b60405180910390fd5b60036004811115610a1a57610a19611542565b5b816004811115610a2d57610a2c611542565b5b1415610a6e576040517f08c379a0000000000000000000000000000000000000000000000000000000008152600401610a6590611113565b60405180910390fd5b600480811115610a8157610a80611542565b5b816004811115610a9457610a93611542565b5b1415610ad5576040517f08c379a0000000000000000000000000000000000000000000000000000000008152600401610acc90611133565b60405180910390fd5b5b50565b6000807f7fffffffffffffffffffffffffffffff5d576e7357a4501ddfe92f46681b20a08360001c1115610b14576000600391509150610bdd565b601b8560ff1614158015610b2c5750601c8560ff1614155b15610b3e576000600491509150610bdd565b600060018787878760405160008152602001604052604051610b63949392919061104e565b6020604051602081039080840390855afa158015610b85573d6000803e3d6000fd5b505050602060405103519050600073ffffffffffffffffffffffffffffffffffffffff168173ffffffffffffffffffffffffffffffffffffffff161415610bd457600060019250925050610bdd565b80600092509250505b94509492505050565b60008060007f7fffffffffffffffffffffffffffffffffffffffffffffffffffffffffffffff60001b841690506000601b60ff8660001c901c610c2991906112b0565b9050610c3787828885610ad9565b935093505050935093915050565b6000610c58610c5384611258565b611233565b905082815260208101848484011115610c7457610c736115a5565b5b610c7f84828561146c565b509392505050565b600082601f830112610c9c57610c9b6115a0565b5b8135610cac848260208601610c45565b91505092915050565b600081359050610cc4816117e4565b92915050565b600060208284031215610ce057610cdf6115af565b5b6000610cee84828501610cb5565b91505092915050565b60008060408385031215610d0e57610d0d6115af565b5b6000610d1c85828601610cb5565b925050602083013567ffffffffffffffff811115610d3d57610d3c6115aa565b5b610d4985828601610c87565b9150509250929050565b610d5c81611436565b82525050565b610d6b816113d7565b82525050565b610d82610d7d826113c5565b6114ac565b82525050565b610d91816113e9565b82525050565b610da0816113f5565b82525050565b610db7610db2826113f5565b6114be565b82525050565b6000610dca601883611294565b9150610dd5826115d2565b602082019050919050565b6000610ded601f83611294565b9150610df8826115fb565b602082019050919050565b6000610e10601c836112a5565b9150610e1b82611624565b601c82019050919050565b6000610e33600b83611294565b9150610e3e8261164d565b602082019050919050565b6000610e56601483611294565b9150610e6182611676565b602082019050919050565b6000610e79602283611294565b9150610e848261169f565b604082019050919050565b6000610e9c602283611294565b9150610ea7826116ee565b604082019050919050565b6000610ebf600883611294565b9150610eca8261173d565b602082019050919050565b6000610ee2600783611294565b9150610eed82611766565b602082019050919050565b6000610f05600083611289565b9150610f108261178f565b600082019050919050565b6000610f28601f83611294565b9150610f3382611792565b602082019050919050565b6000610f4b600983611294565b9150610f56826117bb565b602082019050919050565b610f6a8161141f565b82525050565b610f81610f7c8261141f565b6114da565b82525050565b610f9081611429565b82525050565b6000610fa28285610d71565b601482019150610fb28284610f70565b6020820191508190509392505050565b6000610fcd82610e03565b9150610fd98284610da6565b60208201915081905092915050565b6000610ff382610ef8565b9150819050919050565b60006020820190506110126000830184610d62565b92915050565b600060208201905061102d6000830184610d88565b92915050565b60006020820190506110486000830184610d97565b92915050565b60006080820190506110636000830187610d97565b6110706020830186610f87565b61107d6040830185610d97565b61108a6060830184610d97565b95945050505050565b600060208201905081810360008301526110ac81610dbd565b9050919050565b600060208201905081810360008301526110cc81610de0565b9050919050565b600060208201905081810360008301526110ec81610e26565b9050919050565b6000602082019050818103600083015261110c81610e49565b9050919050565b6000602082019050818103600083015261112c81610e6c565b9050919050565b6000602082019050818103600083015261114c81610e8f565b9050919050565b6000602082019050818103600083015261116c81610eb2565b9050919050565b6000602082019050818103600083015261118c81610ed5565b9050919050565b600060208201905081810360008301526111ac81610f1b565b9050919050565b600060208201905081810360008301526111cc81610f3e565b9050919050565b60006020820190506111e86000830184610f61565b92915050565b60006080820190506112036000830187610f61565b6112106020830186610d53565b61121d6040830185610d53565b61122a6060830184610f61565b95945050505050565b600061123d61124e565b9050611249828261147b565b919050565b6000604051905090565b600067ffffffffffffffff82111561127357611272611571565b5b61127c826115b4565b9050602081019050919050565b600081905092915050565b600082825260208201905092915050565b600081905092915050565b60006112bb8261141f565b91506112c68361141f565b9250827fffffffffffffffffffffffffffffffffffffffffffffffffffffffffffffffff038211156112fb576112fa6114e4565b5b828201905092915050565b60006113118261141f565b915061131c8361141f565b92508261132c5761132b611513565b5b828204905092915050565b60006113428261141f565b915061134d8361141f565b9250817fffffffffffffffffffffffffffffffffffffffffffffffffffffffffffffffff0483118215151615611386576113856114e4565b5b828202905092915050565b600061139c8261141f565b91506113a78361141f565b9250828210156113ba576113b96114e4565b5b828203905092915050565b60006113d0826113ff565b9050919050565b60006113e2826113ff565b9050919050565b60008115159050919050565b6000819050919050565b600073ffffffffffffffffffffffffffffffffffffffff82169050919050565b6000819050919050565b600060ff82169050919050565b600061144182611448565b9050919050565b60006114538261145a565b9050919050565b6000611465826113ff565b9050919050565b82818337600083830152505050565b611484826115b4565b810181811067ffffffffffffffff821117156114a3576114a2611571565b5b80604052505050565b60006114b7826114c8565b9050919050565b6000819050919050565b60006114d3826115c5565b9050919050565b6000819050919050565b7f4e487b7100000000000000000000000000000000000000000000000000000000600052601160045260246000fd5b7f4e487b7100000000000000000000000000000000000000000000000000000000600052601260045260246000fd5b7f4e487b7100000000000000000000000000000000000000000000000000000000600052602160045260246000fd5b7f4e487b7100000000000000000000000000000000000000000000000000000000600052604160045260246000fd5b600080fd5b600080fd5b600080fd5b600080fd5b6000601f19601f8301169050919050565b60008160601b9050919050565b7f45434453413a20696e76616c6964207369676e61747572650000000000000000600082015250565b7f45434453413a20696e76616c6964207369676e6174757265206c656e67746800600082015250565b7f19457468657265756d205369676e6564204d6573736167653a0a333200000000600082015250565b7f696e76616c696420736967000000000000000000000000000000000000000000600082015250565b7f4661696c656420746f2073656e64204574686572000000000000000000000000600082015250565b7f45434453413a20696e76616c6964207369676e6174757265202773272076616c60008201527f7565000000000000000000000000000000000000000000000000000000000000602082015250565b7f45434453413a20696e76616c6964207369676e6174757265202776272076616c60008201527f7565000000000000000000000000000000000000000000000000000000000000602082015250565b7f2165787069726564000000000000000000000000000000000000000000000000600082015250565b7f2173656e64657200000000000000000000000000000000000000000000000000600082015250565b50565b7f5265656e7472616e637947756172643a207265656e7472616e742063616c6c00600082015250565b7f2172656365697665720000000000000000000000000000000000000000000000600082015250565b6117ed8161141f565b81146117f857600080fd5b5056fea2646970667358221220d701f9444bab7ee92f0acdbef78fb31432f5e309291eaf7715eb1fca5e88734364736f6c63430008060033",
  "linkReferences": {},
  "deployedLinkReferences": {}
}